{
  "contractName": "Faucet",
  "abi": [
    {
      "inputs": [
        {
          "internalType": "address",
          "name": "newOwner",
          "type": "address"
        }
      ],
      "name": "changeOwner",
      "outputs": [],
      "stateMutability": "nonpayable",
      "type": "function"
    },
    {
      "inputs": [
        {
          "internalType": "address",
          "name": "",
          "type": "address"
        }
      ],
      "name": "funders",
      "outputs": [
        {
          "internalType": "bool",
          "name": "",
          "type": "bool"
        }
      ],
      "stateMutability": "view",
      "type": "function",
      "constant": true
    },
    {
      "inputs": [
        {
          "internalType": "uint256",
          "name": "",
          "type": "uint256"
        }
      ],
      "name": "funders_arr",
      "outputs": [
        {
          "internalType": "address",
          "name": "",
          "type": "address"
        }
      ],
      "stateMutability": "view",
      "type": "function",
      "constant": true
    },
    {
      "inputs": [],
      "name": "noOfunders",
      "outputs": [
        {
          "internalType": "uint256",
          "name": "",
          "type": "uint256"
        }
      ],
      "stateMutability": "view",
      "type": "function",
      "constant": true
    },
    {
      "inputs": [],
      "name": "owner",
      "outputs": [
        {
          "internalType": "address",
          "name": "",
          "type": "address"
        }
      ],
      "stateMutability": "view",
      "type": "function",
      "constant": true
    },
    {
      "inputs": [],
      "name": "test1Owner",
      "outputs": [],
      "stateMutability": "nonpayable",
      "type": "function"
    },
    {
      "stateMutability": "payable",
      "type": "receive",
      "payable": true
    },
    {
      "inputs": [],
      "name": "addFunds",
      "outputs": [],
      "stateMutability": "payable",
      "type": "function",
      "payable": true
    },
    {
      "inputs": [
        {
          "internalType": "uint256",
          "name": "withdrawAmount",
          "type": "uint256"
        }
      ],
      "name": "withdraw",
      "outputs": [],
      "stateMutability": "nonpayable",
      "type": "function"
    },
    {
      "inputs": [],
      "name": "getAllFunders",
      "outputs": [
        {
          "internalType": "address[]",
          "name": "",
          "type": "address[]"
        }
      ],
      "stateMutability": "view",
      "type": "function",
      "constant": true
    },
    {
      "inputs": [],
      "name": "getNoOfFunders",
      "outputs": [
        {
          "internalType": "uint256",
          "name": "",
          "type": "uint256"
        }
      ],
      "stateMutability": "view",
      "type": "function",
      "constant": true
    },
    {
      "inputs": [
        {
          "internalType": "uint256",
          "name": "index",
          "type": "uint256"
        }
      ],
      "name": "getFunderAtIndex",
      "outputs": [
        {
          "internalType": "address",
          "name": "",
          "type": "address"
        }
      ],
      "stateMutability": "view",
      "type": "function",
      "constant": true
    }
  ],
  "bytecode": "0x608060405234801561001057600080fd5b50336000806101000a81548173ffffffffffffffffffffffffffffffffffffffff021916908373ffffffffffffffffffffffffffffffffffffffff160217905550610ac9806100606000396000f3fe6080604052600436106100a05760003560e01c80638da5cb5b116100645780638da5cb5b14610193578063a26759cb146101be578063a6f9dae1146101c8578063b976a408146101f1578063c218deca14610208578063f3ce456314610245576100a7565b8063031b3677146100ac5780631e7039da146100e95780632e1a7d4d146101145780632fdb728a1461013d5780636fbbb55d14610168576100a7565b366100a757005b600080fd5b3480156100b857600080fd5b506100d360048036038101906100ce91906106e4565b610282565b6040516100e0919061072c565b60405180910390f35b3480156100f557600080fd5b506100fe6102a2565b60405161010b9190610760565b60405180910390f35b34801561012057600080fd5b5061013b600480360381019061013691906107a7565b6102ac565b005b34801561014957600080fd5b50610152610343565b60405161015f9190610760565b60405180910390f35b34801561017457600080fd5b5061017d610349565b60405161018a9190610892565b60405180910390f35b34801561019f57600080fd5b506101a86103d7565b6040516101b591906108c3565b60405180910390f35b6101c66103fb565b005b3480156101d457600080fd5b506101ef60048036038101906101ea91906106e4565b610527565b005b3480156101fd57600080fd5b5061020661056a565b005b34801561021457600080fd5b5061022f600480360381019061022a91906107a7565b6105fa565b60405161023c91906108c3565b60405180910390f35b34801561025157600080fd5b5061026c600480360381019061026791906107a7565b610642565b60405161027991906108c3565b60405180910390f35b60016020528060005260406000206000915054906101000a900460ff1681565b6000600354905090565b8067016345785d8a00008111156102f8576040517f08c379a00000000000000000000000000000000000000000000000000000000081526004016102ef9061093b565b60405180910390fd5b3373ffffffffffffffffffffffffffffffffffffffff166108fc839081150290604051600060405180830381858888f1935050505015801561033e573d6000803e3d6000fd5b505050565b60035481565b606060028054806020026020016040519081016040528092919081815260200182805480156103cd57602002820191906000526020600020905b8160009054906101000a900473ffffffffffffffffffffffffffffffffffffffff1673ffffffffffffffffffffffffffffffffffffffff1681526020019060010190808311610383575b5050505050905090565b60008054906101000a900473ffffffffffffffffffffffffffffffffffffffff1681565b6000339050600160008273ffffffffffffffffffffffffffffffffffffffff1673ffffffffffffffffffffffffffffffffffffffff16815260200190815260200160002060009054906101000a900460ff1661052457600360008154809291906104649061098a565b919050555060018060008373ffffffffffffffffffffffffffffffffffffffff1673ffffffffffffffffffffffffffffffffffffffff16815260200190815260200160002060006101000a81548160ff0219169083151502179055506002819080600181540180825580915050600190039060005260206000200160009091909190916101000a81548173ffffffffffffffffffffffffffffffffffffffff021916908373ffffffffffffffffffffffffffffffffffffffff1602179055505b50565b806000806101000a81548173ffffffffffffffffffffffffffffffffffffffff021916908373ffffffffffffffffffffffffffffffffffffffff16021790555050565b3373ffffffffffffffffffffffffffffffffffffffff1660008054906101000a900473ffffffffffffffffffffffffffffffffffffffff1673ffffffffffffffffffffffffffffffffffffffff16146105f8576040517f08c379a00000000000000000000000000000000000000000000000000000000081526004016105ef90610a44565b60405180910390fd5b565b6000600282815481106106105761060f610a64565b5b9060005260206000200160009054906101000a900473ffffffffffffffffffffffffffffffffffffffff169050919050565b6002818154811061065257600080fd5b906000526020600020016000915054906101000a900473ffffffffffffffffffffffffffffffffffffffff1681565b600080fd5b600073ffffffffffffffffffffffffffffffffffffffff82169050919050565b60006106b182610686565b9050919050565b6106c1816106a6565b81146106cc57600080fd5b50565b6000813590506106de816106b8565b92915050565b6000602082840312156106fa576106f9610681565b5b6000610708848285016106cf565b91505092915050565b60008115159050919050565b61072681610711565b82525050565b6000602082019050610741600083018461071d565b92915050565b6000819050919050565b61075a81610747565b82525050565b60006020820190506107756000830184610751565b92915050565b61078481610747565b811461078f57600080fd5b50565b6000813590506107a18161077b565b92915050565b6000602082840312156107bd576107bc610681565b5b60006107cb84828501610792565b91505092915050565b600081519050919050565b600082825260208201905092915050565b6000819050602082019050919050565b610809816106a6565b82525050565b600061081b8383610800565b60208301905092915050565b6000602082019050919050565b600061083f826107d4565b61084981856107df565b9350610854836107f0565b8060005b8381101561088557815161086c888261080f565b975061087783610827565b925050600181019050610858565b5085935050505092915050565b600060208201905081810360008301526108ac8184610834565b905092915050565b6108bd816106a6565b82525050565b60006020820190506108d860008301846108b4565b92915050565b600082825260208201905092915050565b7f43616e6e6f742065786365656420302e31206574680000000000000000000000600082015250565b60006109256015836108de565b9150610930826108ef565b602082019050919050565b6000602082019050818103600083015261095481610918565b9050919050565b7f4e487b7100000000000000000000000000000000000000000000000000000000600052601160045260246000fd5b600061099582610747565b91507fffffffffffffffffffffffffffffffffffffffffffffffffffffffffffffffff82036109c7576109c661095b565b5b600182019050919050565b7f4f6e6c79206f776e65722063616e2063616c6c20746869732066756e6374696f60008201527f6e00000000000000000000000000000000000000000000000000000000000000602082015250565b6000610a2e6021836108de565b9150610a39826109d2565b604082019050919050565b60006020820190508181036000830152610a5d81610a21565b9050919050565b7f4e487b7100000000000000000000000000000000000000000000000000000000600052603260045260246000fdfea264697066735822122085ec8635b64aef42f4b154512df766afbe23743b4bd1da197c2231b3e303a89d64736f6c63430008110033",
  "immutableReferences": {},
  "source": "// SPDX-License-Identifier: MIT\r\npragma solidity >=0.4.22 <0.9.0;\r\n\r\nimport \"./Owned.sol\";\r\nimport \"./InterfaceFaucet.sol\";\r\n\r\ncontract Faucet is Owned, InterfaceFaucet {\r\n    // Storage variables\r\n    mapping(address => bool) public funders; // map\r\n    address[] public funders_arr; // Array\r\n\r\n    uint256 public noOfunders; // int, uint of any bits\r\n\r\n    // Modifier, to aviod repeatation of statements\r\n    modifier limitWithdraw(uint256 withdrawAmount) {\r\n        require(withdrawAmount <= 100000000000000000, \"Cannot exceed 0.1 eth\");\r\n        _;\r\n    }\r\n\r\n    // Make Tx receive available using paybale\r\n    receive() external payable {}\r\n\r\n    // Only payable functions can have \"Value\" prop\r\n    function addFunds() external payable override {\r\n        address funder = msg.sender;\r\n\r\n        if (!funders[funder]) {\r\n            noOfunders++;\r\n            funders[funder] = true;\r\n            funders_arr.push(funder);\r\n        }\r\n    }\r\n\r\n    // Difference between   external and public\r\n    // Difference between   pure and view\r\n    function withdraw(uint256 withdrawAmount)\r\n        external\r\n        override\r\n        limitWithdraw(withdrawAmount)\r\n    {\r\n        payable(msg.sender).transfer(withdrawAmount);\r\n    }\r\n\r\n    function getAllFunders() external view returns (address[] memory) {\r\n        return funders_arr;\r\n    }\r\n\r\n    function getNoOfFunders() public view returns (uint256) {\r\n        return noOfunders;\r\n    }\r\n\r\n    function getFunderAtIndex(uint256 index) external view returns (address) {\r\n        return funders_arr[index];\r\n    }\r\n}\r\n\r\n// const instance = await Faucet.deployed()\r\n// instance.addFunds({from:accounts[1], value:\"20000000000\"})\r\n// instance.addFunds({from:accounts[3], value:\"20000000000\"})\r\n\r\n// instance.withdraw(\"100000000000000000\",{to:accounts[0]})\r\n",
  "sourcePath": "E:\\Blockchain\\faucet\\contracts\\FaucetContract.sol",
  "compiler": {
    "name": "solc",
    "version": "0.8.17+commit.8df45f5f.Emscripten.clang"
  },
  "schemaVersion": "3.4.10",
  "updatedAt": "2022-09-18T06:42:19.956Z",
  "networkType": "ethereum",
  "devdoc": {
    "kind": "dev",
    "methods": {},
    "version": 1
  },
  "userdoc": {
    "kind": "user",
    "methods": {},
    "version": 1
  }
}